:020000040000FA
:10000000E0FDFF1FED020000F5020000F702000016
:1000100000000000000000000000000000000000E0
:10002000000000000000000000000000F9010000D6
:1000300000000000000000008D020000D902000056
:10004000FF020000FF020000FF020000FF020000AC
:10005000FF020000FF020000FF020000FF0200009C
:10006000FF020000FF020000FF020000FF0200008C
:10007000FF020000FF020000FF020000FF0200007C
:10008000FF020000FF020000FF020000FF0200006C
:10009000FF020000FF020000FF020000FF0200005C
:1000A000FF020000FF020000FF020000FF0200004C
:1000B000FF020000FF020000FF020000FF0200003C
:1000C00000F002F800F03EF80CA030C80838241800
:1000D0002D18A246671EAB4654465D46AC4201D180
:1000E00000F030F87E460F3E0FCCB6460126334274
:1000F00000D0FB1AA246AB463343184778190000DC
:1001000098190000103A02D378C878C1FAD852077B
:1001100001D330C830C101D504680C6070470000BD
:100120000023002400250026103A01D378C1FBD813
:10013000520700D330C100D50B6070471FB51FBDFB
:1001400010B510BD00F000F91146FFF7F7FF0FB42E
:1001500000F00CF80FBC00F091FB00F0E5F803B4E0
:10016000FFF7EEFF03BC00F0E9F8000004B000F078
:10017000DFFB0448002100F033FC00F0EDFB00F051
:10018000D3F8000014F0FF1F80F309887047EFF3E5
:1001900009807047684680F3098806480078C007E0
:1001A00003D1032080F314887047022080F3148861
:1001B00070470000341A0000064B9C46EFF305839D
:1001C0001B0605D1EFF31483DB0701D000DF704776
:1001D00060470000B70A0000064B9C46EFF305831A
:1001E0001B0605D1EFF31483DB0701D000DF704756
:1001F00060470000990C0000EFF309808169891EB7
:10020000097800292BD1A6461FC8A4467446E047AA
:10021000EFF3098307C31A4B06CB91421CD0083B6E
:1002200000290DD0EFF3098020388862F0C04446E1
:100230004D4656465F46F0C00CB401F0A3F80CBC26
:100240001A60906A1030F0C8A046A946B246BB4674
:1002500080F309882038F0C80220C043004710B559
:10026000084A1268914209D8074C89006458A6468A
:100270001FC8A446F047EFF309840FC410BD000067
:1002800030F0FF1F880300008803000000F05AFFD1
:10029000104B06CB91421AD0083BEFF3098020386F
:1002A0008862F0C044464D4656465F46F0C00CB4E6
:1002B00001F068F80CBC1A60906A1030F0C8A046D3
:1002C000A946B246BB4680F309882038F0C8022010
:1002D000C043004730F0FF1F01F006F9D8E70000E7
:1002E00000F0E8FB01F000F9D2E700000748804782
:1002F00007480047FEE7FEE7FEE7FEE7FEE7FEE70A
:1003000004480549034A054B70470000C906000030
:10031000C1000000E0FCFF1FE0FDFF1FE0FCFF1F2D
:10032000004870477CFCFF1F0446C046C04620467C
:10033000FFF715FF7047704770470000014918200C
:10034000ABBEFEE7260002007546FFF7E9FFAE46AA
:10035000050069465346C008C000854618B020B560
:10036000FFF7CEFF60BC00274908B6460026C0C58F
:10037000C0C5C0C5C0C5C0C5C0C5C0C5C0C5403D5D
:1003800049008D46704770470000000030B4744645
:10039000641E2578641CAB4204D3635D5B00E318E4
:1003A00030BC18471D46F8E710B5002A06DA52009F
:1003B0005208D21DD308DB00102203E0D21C9308A0
:1003C0009B000C22002B02D09C188C4201D90120EA
:1003D00010BD82188360411802604160C91AD018AC
:1003E000884202D810600246F9E70020106010BD74
:1003F00010B500F0EFFE00F0DDFE10BD00BFFEE71F
:10040000FFFFFFFFFFFFFFFFFFFFFFFFFEFFFFFFFD
:10041000002203098B422CD3030A8B4211D3002301
:100420009C464EE003460B433CD4002243088B42DB
:1004300031D303098B421CD3030A8B4201D3944668
:100440003FE0C3098B4201D3CB01C01A524183095B
:100450008B4201D38B01C01A524143098B4201D315
:100460004B01C01A524103098B4201D30B01C01A40
:100470005241C3088B4201D3CB00C01A52418308BA
:100480008B4201D38B00C01A524143088B4201D3E7
:100490004B00C01A5241411A00D201465241104647
:1004A00070475DE0CA0F00D04942031000D34042BC
:1004B000534000229C4603098B422DD3030A8B42F2
:1004C00012D3FC22890112BA030A8B420CD3890190
:1004D00092118B4208D3890192118B4204D3890176
:1004E0003AD0921100E08909C3098B4201D3CB01B4
:1004F000C01A524183098B4201D38B01C01A524169
:1005000043098B4201D34B01C01A524103098B426C
:1005100001D30B01C01A5241C3088B4201D3CB0057
:10052000C01A524183088B4201D38B00C01A52413A
:10053000D9D243088B4201D34B00C01A5241411A11
:1005400000D20146634652415B10104601D340423F
:10055000002B00D54942704763465B1000D34042F0
:1005600001B50020C046C04602BD000070B54F482E
:100570000078C0210840002868D14C4840794021CB
:10058000084000284ED1494800780421084000283E
:1005900015D1474C4548007838210840C108012052
:1005A0008840C5B229462046FFF732FF04463F483F
:1005B000407830210840002803D0640901E001247C
:1005C000E4033A48C078E0210840C106C90E00297A
:1005D00026D140110300FFF7D9FE0805090D1115BA
:1005E000191D20230520C00144431AE00520000204
:1005F000444316E00F20C001444312E005204002AE
:1006000044430EE0B720800044430AE0B720C00016
:10061000444306E02748444303E02748444300E0BE
:1006200000BF38E021480079C006C00E451C2946AD
:100630001F48FFF7EDFE04461C484079C006C00E77
:100640000546183520466843044624E017480078DC
:10065000C0210840402815D114484078C007C00F79
:10066000002802D10124E40315E01048007A0E228C
:10067000104042080120904001461048FFF7C8FE94
:10068000044608E009480078C0210840802801D1CC
:10069000074C00E070BD0A484068000F411C20462E
:1006A000FFF7B6FE0749086000BFF3E700400640C9
:1006B00000127A0095080000710B000000093D004F
:1006C0004080044024F0FF1F00202C4908602C4883
:1006D000806B491508432A4988632A4828494031D4
:1006E00048602948806829490840274988600846A9
:1006F000C068264908402449C860254840786421DC
:10070000084024210843224948708020214908706C
:100710009A201F4908700846C078C006C00EC870ED
:10072000012008710020487100BF1948807910210C
:1007300008400028F9D100BF154880790C210840F5
:100740000828F9D140201249487100BF104880792B
:100750000C2108400828F9D100BF0D4880794021BC
:1007600008400028F9D01A200949087000BF08483D
:1007700080790C2108400C28F9D170470081044091
:10078000008004400000011040900440FFF8FFFE8C
:10079000004006400050064080B505490978002910
:1007A00004D0054F00680349BC4600DF80BD00004F
:1007B00029F0FF1FFFFF0000D510000080B504499D
:1007C0000978002903D0034F0068BC4600DF80BDD4
:1007D00029F0FF1FFD0F00000EB502468020002A01
:1007E0000DD000290BD11178012908D1104601A99B
:1007F00000F021F8042801D0002000E01020029A27
:10080000019903B000BD70B50D46040004D0002A64
:1008100002D12078012801D0802070BD204600F050
:10082000F9FA002805D029462046FFF7E1FD00200F
:1008300070BD812070BD10B50446808900281CD091
:10084000608980000019006908606078022805D17D
:100850000021204600F0BEFC00F0ACFC72B6A0897E
:10086000401EA08162B66089401C80B26081E1892F
:10087000884201D100206081042010BD0024FFF7D0
:1008800075FE2648806B012189020843234988634D
:100890000846806B012109030843204988632048EA
:1008A0008068891508431E4988600846C068891514
:1008B00008431B49C8601B4840688915084319490B
:1008C000486019484069022108431749486123E0FC
:1008D000154800680221084313490860002400E01D
:1008E000641C12488442FBD3002400E0641C0F48BF
:1008F0008442FBD30C488068022108430A4988607F
:10090000002400E0641C09488442FBD3002400E07A
:10091000641C06488442FBD3DAE7000000800440F0
:1009200040A0044000C00440C0F00F4040420F000F
:1009300080B5EFF30580002801D0822080BDEFF361
:100940001480C00703D0034FBC4600DF80BD00F019
:100950002DFF80BDAD17000080B588B0EFF3058096
:10096000002802D0822008B080BDEFF314808107F8
:100970001248890F06D001291AD0022910D0032964
:1009800018D112E008A981F309880078C0070AD0BD
:10099000022080F31488BFF34F8FBFF36F8F09E0FD
:1009A0000078C00706D10320F3E70078C00701D024
:1009B000FF20D8E7024FBC4600DFD4E7341A00001E
:1009C0002518000080B5EFF30582002A02D0FFF75A
:1009D00003FF80BD014FBC4600DF80BD9B180000B7
:1009E00080B5EFF30582002A01D0002080BDEFF32F
:1009F0001482064BD2075B78D20F1A4303D0044F00
:100A0000BC4600DF80BD00F067FF80BD28F0FF1FFF
:100A1000D9180000034FBC4600DF034FBC4600DF7F
:100A2000FEE70000511900006D19000080B5024F6B
:100A3000BC4600DF80BD0000A91900000025094C5C
:100A4000ED4329462068FFF7BDFF02460846102AFD
:100A5000F7D1FFF7EBFF0028F3D002460846904796
:100A6000EFE7000004F0FF1F012806D0022805D0A0
:100A7000032804D0042804D102E002E001E000E0F1
:100A800000BF00BF00BFFEE707480168074841619B
:100A900000218161072101610548016AFF221206D8
:100AA0001143016240177047301A000000E000E077
:100AB00000ED00E070470146EFF31080C207D20F4F
:100AC00072B60868002801D003680B60002A00D1C4
:100AD00062B6704710B500280ED000290CD00B313B
:100AE0008A089200016844680B1A1B1B934205D2C6
:100AF000084609680029F5D1002010BD210007D063
:100B0000211803680B604A6001600846083010BD78
:100B10004260083010BD000070B50D4600280FD0AF
:100B20000849094C884204D222680146104600F068
:100B300071FB20684570054800F0D9F800F036FCDC
:100B400070BD0000FFFF000030F0FF1F4CFCFF1FD6
:100B500010B50E480C4942680D480B680068934276
:100B600004D00A60CB88421E9A188A808A8880B294
:100B7000824208D100200860044800F0B8F801461D
:100B8000024800F06FFB10BD44F0FF1F4CFCFF1F3C
:100B900040F0FF1F70B51A4DE86800282FD0A88AD2
:100BA000401EA882002624E0A068002808D06168C2
:100BB00041606068002802D0A16881606660A6601C
:100BC0000F482146183800F04DFBA08AA8826078B3
:100BD000042804D10B49E08A09884018A08201202A
:100BE0006070E068E860E068002801D00561E660B8
:100BF0002661A88A002802D1EC68002CD4D170BDEF
:100C000064FCFF1F40F0FF1F70B504000ED00C4DB8
:100C1000A17828680126827891420BD900F040FB28
:100C200028684670204600F0C1FB70BD054800F002
:100C30005EF8F8E766702146024800F013FB70BDCD
:100C400030F0FF1F4CFCFF1F10B50446008B08431B
:100C500020836278618B062A17D0052A14D10842B6
:100C600012D00A460240628388432083204600F067
:100C700040FB01206070628B0821204600F035FBAC
:100C80002146044800F0EEFA10BD0A468243EBD03C
:100C900010BD00004CFCFF1F814202D342688A4213
:100CA00001D801207047EFF31082D207D20F72B63D
:100CB00003680B60016000D162B600207047002815
:100CC00010D000290ED00022083903E00246006847
:100CD000002807D08842F9D1002A05D000681060AA
:100CE000002070470120704700214160F8E701466D
:100CF000406842684A600B780022022B05D0012B25
:100D000003D0032B01D0426070474368002B01D011
:100D10009960426082607047810700D00020704770
:100D200070B50446154600202070012262702246EC
:100D3000A170203211716060A060E06020612062CB
:100D4000A082E082208360835071E08C002803D170
:100D50000448FFF7B0FEE0622946204600F01EF886
:100D600070BD0000C8F1FF1F002801D0082901D282
:100D7000012070474118091F002201600A6042608B
:100D80001046704703480021016003490988C1806B
:100D90007047000044F0FF1F241A0000F0B5C28C19
:100DA000194D930802D12A881204930CC26A9C0040
:100DB0001219540700D5121F01242406403AD463A7
:100DC000002491632646A700641CD6510E2CFAD34A
:100DD000C4691462826201632968C9000FD5112BAE
:100DE0000DD9103B5908094B02E0083A53601360D3
:100DF000491EFAD1C16A121F8A4200D91360C06A23
:100E000003490160F0BD0000201A0000CCCCCCCC1E
:100E1000A52E5AE2C1898089081A70470122027002
:100E20000022427082704260028142818281034AC4
:100E300089038918090CC181704700000000FCFF7C
:100E4000F8B50446406800270D46002844D0607875
:100E50000126012837D0022813D0032832D10846B2
:100E6000FFF729FE05002DD02046FFF740FF04467E
:100E7000294600F037FA6670204600F03AFA21461B
:100E80001DE02046FFF733FF0546002100F02AFA57
:100E90002189E86989000919086172B6A089401C96
:100EA000A08162B62089401C80B22081E1898842FD
:100EB00000D127816E70284600F01BFA294613489E
:100EC00000F0D0F9F8BD2046FFF711FF04462A468E
:100ED000102100F00AFACEE7A089E189884211D2F8
:100EE000208980000019056172B6A089401CA0818C
:100EF00062B62089401C80B22081E1898842E1D11C
:100F00002781F8BD0320FFF7AFFDF8BD4CFCFF1FA4
:100F100070B50446808900261546002834D06089C3
:100F200080000019006908606089401C80B26081FF
:100F3000E189884200D166816068002802D060782B
:100F4000022806D072B6A089401EA08162B6002099
:100F500070BD2046FFF7CBFE0546002100F0C2F928
:100F60002189E8698900091908612089401C80B23B
:100F70002081E189884200D12681284600F0B9F914
:100F80002846FFF741FEE2E7002D08D00B486268D3
:100F90000168002A05D0204600F064F908E001202D
:100FA00070BD616001684E600068846001206070FF
:100FB00008212846FFF7B0FDF1E7000030F0FF1FE1
:100FC00010B5411C11D00A490A4C88420BD87D212A
:100FD000C900484308490A6880181146401EFFF7B7
:100FE00017FAA04200D9204610BD0248401C10BD8F
:100FF00000093D00FEFF0000401A0000F8B504465D
:101000004088002804D0314DA1682A68914201D05F
:10101000FF20F8BD401E0004000C608053D12968F9
:10102000086AA04209D1E068086208E0C268A242EA
:1010300002D1E268C26002E010460028F6D1242006
:10104000405C0A6A07E05368002B03D09B78834218
:1010500000D91846D268002AF5D188706168012647
:10106000002922D02046FFF742FE0746002100F06B
:1010700039F9384600F03DF96680A760386AE060CB
:101080003C621348296840688A788078824201D39C
:10109000384616E00E4800F0E5F839460C4800F0F6
:1010A000E1F8286846707E700AE0094949688A7844
:1010B0002968824207D9064800F0D4F828684670AB
:1010C0000020FFF7A1FD0020F8BD000030F0FF1F59
:1010D0004CFCFF1F70B50E46194D04464188286828
:1010E000002907D0A168814209D16088401C608036
:1010F000002070BDA060016AE1600462F5E7002E87
:101100000FD08A788078824203D28870A06800F07D
:10111000D1F86068002806D02046296800F0A2F8BF
:1011200008E0012070BD28686060296800204860E0
:101130002868846009213046FFF7EEFCF1E70000E3
:1011400030F0FF1F70B51848012102685170006827
:1011500000F0A6F8154C657813E0E800011948681E
:101160000278002A17D0012A1AD000F0F1F8E078AE
:101170006D1C854200D1002572B6A078401EA0707B
:1011800062B6A0780028E8D165700948FFF7AFFD86
:1011900000F00CF970BD098989B2FFF755FDE6E74B
:1011A0008968FFF74DFEE2E730F0FF1F38F8FF1FB8
:1011B0004CFCFF1F05480178002902D00121417035
:1011C00070470120024900074860704738F0FF1F50
:1011D00000ED00E070B50E4BDD789C1C1E4672B62B
:1011E0009A78AA4207D2521C22703278541CAC4220
:1011F00000D10024347062B6DC78944204D9D20065
:10120000D2189160506070BD0220FFF72DFC70BDB8
:1012100038F8FF1F10B5124AD368002B17D01346B9
:101220009B8A04E0002C12D02246A48AE318D468DA
:101230008B42F7D3C460D0600261C468002C00D038
:101240002061591A8182908A401A908210BD002430
:10125000C460D060C91A02619182848210BD00000E
:1012600064FCFF1F30B502780023022A03D0012A54
:1012700001D0032A00D101238C7800E01046426897
:10128000002A02D09578A542F8D24A604160002B2E
:1012900004D0002A00D09160886030BD0020FBE7B8
:1012A00003494A684260002282604860704700003B
:1012B0004CFCFF1F10B583680446002B05D16078F5
:1012C00001280CD1064B03E09B6818780028FBD05E
:1012D000204600F023F821461846FFF7C3FF10BD53
:1012E0004CFCFF1F806A01627047806A42620162A3
:1012F000704710B5016900290FD0C268CA60C36881
:101300000022002B07D08B8A848A1B198B82C3682A
:101310001961C26000E08A82026110BD8168002903
:1013200007D042684A604168002901D0806888601F
:101330007047064906E04A68824202D14068486028
:10134000704711460029F6D1704700004CFCFF1F82
:1013500010B5416800290FD0FFF7C9FC0446FFF71C
:10136000C8FF0120607001462046FFF7BBFF214601
:101370000348FFF777FF10BD4188491C418010BD2D
:101380004CFCFF1F10B507480068816AC06A8142A3
:1013900003D300680449884202D00120FFF764FBB0
:1013A00010BD000030F0FF1FA52E5AE20249486030
:1013B000022141707047000030F0FF1F70B500201F
:1013C00004462049204A02E08300CC50401C138888
:1013D0009842F9D31D48342201881D48FEF7E4FFE6
:1013E0001C4801210088C90780B242181A480168C8
:1013F0001A48FEF7D9FF1A480822018819480068E0
:10140000FEF7D2FF184DFF20E870EC84174A002148
:101410002846FFF785FC16480421017044601548F2
:101420000170C4600461848213481549056002207C
:1014300068701248047044700978C170FFF7A2FC0C
:1014400070BD0000BCF8FF1F1C1A0000481A000005
:1014500050F0FF1F201A00004C1A0000C8F1FF1FB7
:10146000701A00000CF0FF1F18FCFF1FFD030000A6
:101470004CFCFF1F64FCFF1F30F0FF1F38F8FF1FFC
:10148000541A000010B51448016AFF2212041143D7
:101490000162C169026A5202920E92061143C16151
:1014A000FFF7F2FA0D490028086013DB82080C49A7
:1014B000920051180A688307DC0EFF23A3401A43E9
:1014C0000A60C206D20E012191404011054A8000F7
:1014D0008018016010BD000000ED00E03CF0FF1F2F
:1014E00000E400E000E100E010B50B4801210268D3
:1014F00051700068FFF7D4FEFFF72AFB0748016828
:10150000491C0160FFF746FB00F05CFA0448FFF756
:10151000EEFBFFF74BFF10BD30F0FF1F40F0FF1F49
:101520004CFCFF1F002805D0810702D1017800295B
:1015300000D000207047000030B50C4C00236268DA
:1015400005E095688D4204D813461268491B002AAD
:10155000F7D102608160002A02D09568691A916013
:10156000002B01D0186030BD606030BD28F0FF1F37
:10157000FFB5080681B01E4617460C46000E00D186
:101580004C1C1448FFF797FA050021D02002000CEC
:10159000EF62E884EE61E1B22846019AFFF7C0FBF2
:1015A00001240D480D4906E0A2001218803AD26FBE
:1015B000002A04D0641C0A889442F5D90024A100B2
:1015C00008188038C567EC702846FFF71DFB2046D9
:1015D00005B0F0BD50F0FF1FBCF8FF1F1C1A000043
:1015E000F8B5484D0028296802D0CA78824238D11F
:1015F00000274F70FEF7CBFD29688862FFF7C2FE17
:101600002868046A19E06068002815D02046FFF7B2
:101610006EFB06460021FFF765FE3046FFF769FEC8
:101620000120707031463848FFF71CFE01216180AF
:10163000A660316AE1603462E468002CE3D1286876
:10164000C1788A00314951188039CF67C16A304862
:10165000FFF722FB29682F48CF62FFF71DFB2F60A1
:101660004AE02D49098888420ED8810027480F1882
:10167000803FFD6F002D07D02846FFF74FFE28461C
:10168000FFF737FE2C6A1DE0FF20F8BD60680028D8
:1016900017D02046FFF72BFB06460021FFF722FE5E
:1016A0003046FFF726FE0120707031461648FFF7DE
:1016B000D9FD01216180A660316AE1603462E4688D
:1016C00000E0E468002CE1D1FC671148E96AFFF70B
:1016D000E3FA29460F48EC62FFF7DEFA0A48406851
:1016E0008278084801688B789A4208D901224A70AA
:1016F00001680548FFF7B6FD0020FFF785FA0020D6
:10170000F8BD000030F0FF1F4CFCFF1FBCF8FF1FAE
:10171000C8F1FF1F50F0FF1F1C1A000070B51B4DD1
:10172000002811D01A4A1288904220D88200194805
:1017300010188038C46F002C19D0A17024200155D6
:101740002868A04205D014E02868817028682030FD
:101750000171114840688078884215D90E4829687F
:10176000FFF780FD29680120487000200AE0FF2073
:1017700070BD2046FFF79EFD6078012804D1064821
:10178000FFF7B5FAFFF740FA002070BD30F0FF1FF9
:101790001C1A0000BCF8FF1F4CFCFF1F0248006829
:1017A000002800D0C078704730F0FF1F10B5154CEE
:1017B000207800280DD11448400706D1134801684D
:1017C0001148FFF7D1FA002801D0852010BDFFF79E
:1017D000F5FD0F49FF2009688870207800280BD19B
:1017E00000210C4800F044F80B49086000210B4828
:1017F00000F072F80A490860012020700020607033
:1018000010BD000028F0FF1F88F6FF1F501A0000CF
:1018100030F0FF1F681A000004F0FF1F581A000084
:1018200000F0FF1F70B5104D6878002801D000202F
:1018300070BD0E4C2068203001790020FFF76EFF4C
:101840002068C178FF2903D1816A203181F309889A
:101850006168002902D1606000202060FFF712FE5D
:1018600001206870E3E7000028F0FF1F30F0FF1F41
:1018700010B5040008D02168002905D06068002850
:1018800002D00278002A01D0002010BD890010315A
:1018900089B2FFF7C3FA606810BD3EB504468020E8
:1018A0000D46002C13D02178012910D12846FFF7CE
:1018B00087FB82B2204601A9FFF72AFB012801D04D
:1018C000102004E0002D01D0402000E00020029A0A
:1018D000019903B030BD000070B50E4604002ED053
:1018E000206800282BD00420205EC11C27DB0328A1
:1018F00025DCE168002905D01248FFF7EBF8050068
:1019000016D000E000250421615EE068091D000298
:10191000014333462A462068FFF72AFE002808D0F4
:101920000949800040188038C06F0849826A5163B5
:1019300070BD002D03D029460248FFF7C0F90020F2
:1019400070BD000088F6FF1FBCF8FF1F150A0000DD
:1019500010B5FFF723FF002804D00349800040188A
:101960008038C06F10BD0000BCF8FF1F10B5FFF736
:10197000D9FD002804D0C18C002903D0C46A02E03C
:10198000802010BD0024C078FFF72AFEFF2807D072
:10199000002C03D021460348FFF791F9002010BD29
:1019A000812010BD88F6FF1F10B5FFF7B5F900289C
:1019B00005D04169026909680846114610BD00203A
:1019C000014610BDF8B5134E7468002C1BD0A068FA
:1019D000114F401EA06013E0254624687460002269
:1019E00029463868FEF70FFF002802D00420FFF7D1
:1019F0003BF86879012807D001202871002C02D01B
:101A0000A0680028E8D0F8BD2846E968FFF794FDF3
:101A1000F4E7000028F0FF1F04F0FF1F070000009C
:101A2000C800020105000100001BB7000C00000007
:101A3000DF2E000001000000020001004E00040043
:101A4000E80300000000000078010000C00400006E
:101A5000B0010000100000003D0A0000020000007C
:101A600001000000C800000004000000D8F8FF1FBB
:101A700000000000941A000000F0FF1F4C0000005E
:101A800004010000E01A00004CF0FF1F940D00005C
:101A90002001000000000000000000000000000025
:101AA00000000000000000007D08000000000000B1
:101AB00001000000C8000000006CDC020000000013
:101AC0000000000000000000000000000000000016
:101AD0000000000000000000000000000000000006
:04000005000002ED08
:00000001FF
