:020000040000FA
:1000000068F4FF1F650100006D0100006F01000032
:1000100000000000000000000000000000000000E0
:10002000000000000000000000000000710100005E
:1000300000000000000000007301000075010000D6
:1000400077010000770100007701000077010000D0
:1000500077010000770100007701000077010000C0
:1000600077010000770100007701000077010000B0
:1000700077010000770100007701000077010000A0
:100080007701000077010000770100007701000090
:100090007701000077010000770100007701000080
:1000A0007701000077010000770100007701000070
:1000B0007701000077010000770100007701000060
:1000C00000F002F800F03EF80CA030C80838241800
:1000D0002D18A246671EAB4654465D46AC4201D180
:1000E00000F030F87E460F3E0FCCB6460126334274
:1000F00000D0FB1AA246AB46334318477C020000EF
:100100009C020000103A02D378C878C1FAD852078E
:1001100001D330C830C101D504680C6070470000BD
:100120000023002400250026103A01D378C1FBD813
:10013000520700D330C100D50B6070471FB51FBDFB
:1001400010B510BD00F0D8F81146FFF7F7FF00F02A
:100150006FFA00F0F0F803B4FFF7F2FF03BC00F011
:10016000F5F800000748804707480047FEE7FEE72C
:10017000FEE7FEE7FEE7FEE704480549034A054BB4
:10018000704700006D050000C100000068F0FF1F0F
:1001900068F4FF1F68F0FF1F002203098B422CD375
:1001A000030A8B4211D300239C464EE003460B43C7
:1001B0003CD4002243088B4231D303098B421CD329
:1001C000030A8B4201D394463FE0C3098B4201D31B
:1001D000CB01C01A524183098B4201D38B01C01A53
:1001E000524143098B4201D34B01C01A52410309CA
:1001F0008B4201D30B01C01A5241C3088B4201D379
:10020000CB00C01A524183088B4201D38B00C01A25
:10021000524143088B4201D34B00C01A5241411A4C
:1002200000D201465241104670475DE0CA0F00D02F
:100230004942031000D34042534000229C46030928
:100240008B422DD3030A8B4212D3FC22890112BAAE
:10025000030A8B420CD3890192118B4208D3890186
:1002600092118B4204D389013AD0921100E089099E
:10027000C3098B4201D3CB01C01A524183098B427F
:1002800001D38B01C01A524143098B4201D34B0168
:10029000C01A524103098B4201D30B01C01A5241CB
:1002A000C3088B4201D3CB00C01A524183088B4252
:1002B00001D38B00C01A5241D9D243088B4201D3DB
:1002C0004B00C01A5241411A00D2014663465241C6
:1002D0005B10104601D34042002B00D549427047C5
:1002E00063465B1000D3404201B50020C046C046C3
:1002F00002BD704770477047754600F023F8AE4660
:10030000050069465346C008C000854618B020B5B0
:10031000FFF732FF60BC00274908B6460026C0C57B
:10032000C0C5C0C5C0C5C0C5C0C5C0C5C0C5403DAD
:1003300049008D4670470446C046C0462046FFF738
:100340000AFF00000048704704F0FF1F0149182011
:10035000ABBEFEE726000200704730B47446641E50
:100360002578641CAB4204D3635D5B00E31830BCAA
:1003700018471D46F8E70000E406000000F0FF1FE4
:100380000400000004010000E806000004F0FF1F64
:1003900064040000200100000000000000000000D4
:1003A000000000000000000000000000000000004D
:1003B000000000000000000000000000000000003D
:1003C000000000000000000000000000000000002D
:1003D000000000000000000000000000000000001D
:1003E000000000000000000000000000000000000D
:1003F00000000000000000000000000000000000FD
:10040000FFFFFFFFFFFFFFFFFFFFFFFFFEFFFFFFFD
:1004100070B54F480078C0210840002868D14C488A
:1004200040794021084000284ED1494800780421F5
:100430000840002815D1474C45480078382108402D
:10044000C10801208840C5B229462046FFF7A4FE16
:1004500004463F48407830210840002803D0640912
:1004600001E00124E4033A48C078E0210840C106D5
:10047000C90E002926D140110300FFF76EFF0805C1
:10048000090D1115191D20230520C00144431AE050
:1004900005200002444316E00F20C001444312E04F
:1004A0000520400244430EE0B720800044430AE0A8
:1004B000B720C000444306E02748444303E02748F0
:1004C000444300E000BF38E021480079C006C00E78
:1004D000451C29461F48FFF75FFE04461C4840792B
:1004E000C006C00E0546183520466843044624E081
:1004F00017480078C0210840402815D1144840789A
:10050000C007C00F002802D10124E40315E0104801
:10051000007A0E2210404208012090400146104807
:10052000FFF73AFE044608E009480078C021084079
:10053000802801D1074C00E070BD0A484068000FD8
:10054000411C2046FFF728FE0749086000BFF3E77B
:100550000040064000127A0095080000710B000070
:1005600000093D004080044000F0FF1F00202949A1
:1005700008602948806B4915084327498863274844
:10058000254940314860264880682649084024496A
:1005900088600846C068234908402149C86089200E
:1005A000214908702420214948709A200870084683
:1005B000C078C006C00EC8700120087100204871C4
:1005C00000BF1A488079102108400028F9D100BFE7
:1005D000164880790C2108400828F9D14020134999
:1005E000487100BF114880790C2108400828F9D1D2
:1005F00000BF0E488079402108400028F9D01A2019
:100600000A49087000BF094880790C2108400C286D
:10061000F9D17047008104400080044000000110BF
:1006200040900440FFF8FFFE0050064000400640A6
:100630000024FFF7EDFE2648806B01218902084364
:10064000234988630846806B012109030843204938
:10065000886320488068891508431E4988600846D9
:10066000C068891508431B49C8601B484068891544
:10067000084319494860194840690221084317494D
:10068000486123E0154800680221084313490860C7
:10069000002400E0641C12488442FBD3002400E0E4
:1006A000641C0F488442FBD30C4880680221084335
:1006B0000A498860002400E0641C09488442FBD396
:1006C000002400E0641C06488442FBD3DAE7000003
:1006D0000080044040A0044000C00440C0F00F402F
:0806E00040420F00006CDC0237
:040000050000016591
:00000001FF
